:020000040000FA
:020000000528D1
:08000800D929831603130F3000
:100010008500860087018801C03081008B170B178F
:100020000B168B100C1463309200831203130530EF
:1000300092008312031335208701880138303A215A
:100040000C303A217920831603130D309F00831260
:10005000031341309F00A601CA01CB01C601C701AD
:10006000C801C9010C21E7203428DC308E000B3098
:100070008F003130900008007920261C4128722022
:1000800046280710861D472086194E20080000309C
:10009000A70082207F206A218220080001300F39CA
:1000A0003038D6004808D5000130A61C0230A70021
:1000B00066207F2002300F393038D6004908D5003D
:1000C0000130261D0230A70066200800A50182200D
:1000D00056084221822001302706031D71285E2127
:1000E0008220080007140330A70082207F2082208E
:1000F0000800A50102303A2101303A210800C03041
:100100003A2108008A20A50A003E031989284221C5
:1001100082280800270882079028AA28BB28C92817
:10012000250882074F3478347934673465346E3467
:10013000203456346F346C3475346D346534003487
:1001400020344C3469347434653472342834733454
:10015000293400342508820742346534643400347D
:1001600020344F344E3420342034003420344C3486
:100170002F347334003425088207423465346434E4
:10018000003420344F344634463420342D342D345A
:100190000034250882074F34783479346734653465
:1001A0006E3420344C346534763465346C34203409
:1001B0004C346F3477340034463469346C346C34E6
:1001C0002034543461346E346B3421340034EE20E6
:1001D00011211A213021AF213C2008004A08B00229
:1001E0004B08031C4B0FB102031C09213008C0004F
:1001F0003108C100F330C2000130C3004008C20220
:100200004108031C410FC30203182614031C2610C7
:100210000800B001B1010800C430B0000930B100DD
:1002200008008618A614861CA61006192615061D99
:1002300026110800C601A61C212941309F00292152
:10024000C600C701261D282949309F002921C70063
:1002500008004A211F150C1F2B290C131E0808002B
:1002600046085221C80047085221C90048084907DA
:10027000CA00080088008712871700008713071339
:100280004A21080088008716871700008713071384
:100290004A2108000330A100A001A00B4D29A10BA9
:1002A0004D290800C5007F3C031C0A3445083F3C2B
:1002B000031C05344508031D013400345508B500FE
:1002C0008021370E0F393038422137080F39303846
:1002D000422108003008B5003108B6009021380EE0
:1002E0000F393038422138080F3930384221370E63
:1002F0000F393038422137080F3930384221080091
:10030000B7010530B9000310B50DB50DB50D0330BB
:10031000B707B71DB702B50DB70DB90B8729080090
:10032000B701B8010C30B9000310B50DB60DB50D0D
:10033000B60DB50DB60DB50DB60D3330B707B719FF
:10034000F039B71B0F39B7020330B807B81DB80230
:10035000B50DB60DB70DB80DB90B9D2908004A08AB
:100360000319BF2906304A02031CC4290B304A0274
:10037000031CC92910304A02031CCE29D32900309E
:1003800095000C309700D829083095000C30970064
:10039000D8290F3095003C309700D82915309500AA
:1003A0000C309700D829193095000C309700D829C7
:1003B00008008B18DE290C18E12909008B100C218C
:1003C000DD290C103520A20A02302202031DEA2981
:0603D000A201E720DD2977
:02400E0039393E
:00000001FF
